:100000000C942A000C9447000C9447000C94470071
:100010000C9447000C9447000C9447000C94470044
:100020000C9447000C9447000C9447000C94470034
:100030000C9447000C9447000C9447000C94470024
:100040000C9447000C9447000C9447000C94470014
:100050000C94470011241FBECFE5D8E0DEBFCDBF12
:1000600011E0A0E6B0E0EAE4F0E102C005900D92F4
:10007000A634B107D9F711E0A6E4B1E001C01D92A2
:10008000AD34B107E1F70E940F050C9423080C94DE
:100090000000413009F03EC08130A9F0813030F0DD
:1000A0008230F1F0833009F078C027C081E090E021
:1000B0009C0102C0220F331F6A95E2F7B9018AB38F
:1000C000682B6ABB089581E090E09C0102C0220F7A
:1000D000331F6A95E2F7B90187B3682B67BB0895B0
:1000E00081E090E09C0102C0220F331F6A95E2F785
:1000F000B90184B3682B64BB089581E090E09C0152
:1001000002C0220F331F6A95E2F7B90181B3682B51
:1001100061BB0895442309F040C08130A9F08130CB
:1001200028F08230F9F08330C1F52AC081E090E0F8
:100130009C0102C0220F331F6A95E2F7B901609556
:100140008AB368236ABB089581E090E09C0102C0F5
:10015000220F331F6A95E2F7B901609587B36823D0
:1001600067BB089581E090E09C0102C0220F331F1D
:100170006A95E2F7B901609584B3682364BB08957A
:1001800081E090E09C0102C0220F331F6A95E2F7E4
:10019000B901609581B3682361BB0895413009F0CE
:1001A0003EC08130A9F0813030F08230F1F08330F0
:1001B00009F078C027C081E090E09C0102C0220FC6
:1001C000331F6A95E2F7B9018BB3682B6BBB0895B7
:1001D00081E090E09C0102C0220F331F6A95E2F794
:1001E000B90188B3682B68BB089581E090E09C0159
:1001F00002C0220F331F6A95E2F7B90185B3682B5D
:1002000065BB089581E090E09C0102C0220F331F7E
:100210006A95E2F7B90182B3682B62BB0895442363
:1002200009F040C08130A9F0813028F08230F9F027
:100230008330C1F52AC081E090E09C0102C0220F0A
:10024000331F6A95E2F7B90160958BB368236BBBE6
:10025000089581E090E09C0102C0220F331F6A954F
:10026000E2F7B901609588B3682368BB089581E01F
:1002700090E09C0102C0220F331F6A95E2F7B9019A
:10028000609585B3682365BB089581E090E09C018B
:1002900002C0220F331F6A95E2F7B901609582B35D
:1002A000682362BB0895813089F0813028F0823064
:1002B000B9F0833049F51EC029B330E0C90102C04E
:1002C000959587956A95E2F78170089526B330E099
:1002D000C90102C0959587956A95E2F781700895E6
:1002E00023B330E0C90102C0959587956A95E2F77E
:1002F0008170089520B330E0C90102C095958795BB
:100300006A95E2F78170089580E00895813049F0A0
:10031000813028F0823039F0833041F406C06ABB66
:10032000089567BB089564BB089561BB089581304B
:1003300049F0813028F0823039F0833041F406C032
:100340006BBB089568BB089565BB089562BB0895B3
:10035000CF93DF9380E061E00E946C07C0E6D0E0BD
:10036000CE010E94D50681E061E00E946C07CE01BB
:100370000E94D506DF91CF91089581E060E04CE0C6
:100380000E94DF078FEF91EEA4E081509040A040E3
:10039000E1F700C00000089580E060E04CE00E94BA
:1003A000DF078FEF91EEA4E081509040A040E1F78D
:1003B00000C00000089581E06FE04DE00E94DF077B
:1003C0008FEF91EEA4E081509040A040E1F700C093
:1003D0000000089580E06FE04DE00E94DF078FEF9E
:1003E00091EEA4E081509040A040E1F700C00000F1
:1003F00008950E94A80181E00E94580680E060E014
:100400000E946C078FE690E00E94D50680E065E0D0
:100410000E946C0760914A0170E080E090E00E94C9
:10042000EA0681E060E00E946C0785E790E00E94A8
:10043000D50681E065E00E946C076091490170E09B
:1004400080E090E00E94EA068FEF97EAA1E68150F3
:100450009040A040E1F700C0000081E00E945806F3
:100460000895FF920F931F93082F162F0F2EFFE072
:10047000FF2EF02D802F612F4AE00E94DF072FEF23
:1004800031EE44E0215030404040E1F700C0000030
:1004900081E00E9458060E949405809346012FEF48
:1004A00030E742E0215030404040E1F700C000001A
:1004B000863349F0823339F0883329F0112309F467
:1004C0001F2D1150D7CF812F1F910F91FF900895AD
:1004D000FF920F931F93082F162FFF24802F612F59
:1004E0004AE00E94DF072FEF31EE44E02150304018
:1004F0004040E1F700C0000081E00E9458060E94E1
:100500009405809346012FEF30E742E021503040C0
:100510004040E1F700C00000843349F0823339F0F5
:10052000883329F01F3008F01F2D1F5FD7CF812F90
:100530001F910F91FF900895FF920F931F93062F25
:10054000182FFF246894F1F8812F602F4BE00E9450
:10055000DF072FEF31EE44E0215030404040E1F71B
:1005600000C0000081E00E9458060E94940580931C
:1005700046012FEF30E742E0215030404040E1F7A4
:1005800000C00000843349F0863339F0883329F005
:10059000112309F41F2D1150D7CF812F1F910F91D7
:1005A000FF900895FF920F931F93062F182FFF249B
:1005B000FA9401C01F2D812F602F4BE00E94DF07AE
:1005C0002FEF31EE44E0215030404040E1F700C0D1
:1005D000000081E00E9458060E9494058093460125
:1005E0002FEF30E742E0215030404040E1F700C0BB
:1005F0000000843321F0863311F08233D9F6812F45
:100600001F910F91FF900895CF93DF9380E060E0FA
:100610000E946C07CBE7D0E0CE010E94D50681E0B6
:1006200060E00E946C07CE010E94D506DF91CF9159
:100630000895CF93DF9380E06FE00E946C07CBE7D3
:10064000D0E0CE010E94D50681E06FE00E946C07E9
:10065000CE010E94D506DF91CF910895833349F0F2
:10066000893371F40E9419030E94DB0110924B013F
:1006700007C00E9419030E94EA0181E080934B01A8
:1006800080914B010895813349F0873371F40E94C2
:1006900004030E94BD0110924C0107C00E94040394
:1006A0000E94CC0181E080934C0180914C0108951F
:1006B000FF920F931F93082F162F603158F5FF24D8
:1006C000F3941F3080F4802F612F49E00E94DF07F0
:1006D0002FEF33EF41E0215030404040E1F700C0C0
:1006E00000000E94A8013F2D301B032F0E9494059B
:1006F000809346012FEF30E742E0215030404040E8
:10070000E1F700C000000E942E031F5F1031C8F205
:10071000102F02C080E010E00817B1F081E0801BCC
:100720006FE049E00E94DF078FEF93EDA0E3815077
:100730009040A040E1F700C0000080914A018F5F27
:1007400080934A010E94F901812F1F910F91FF9020
:100750000895EF92FF920F931F93082F162F662391
:1007600081F1F62EFA94EE24E39402C01150FA942B
:10077000112309F446C0802F612F49E00E94DF0752
:100780002FEF33EF41E0215030404040E1F700C00F
:1007900000000E94A8013E2D301B032F0E949405EB
:1007A000809346012FEF30E742E021503040404037
:1007B000E1F700C000000E944303FF20B9F6102FAC
:1007C00002C080E010E00817B1F081E0801B60E01B
:1007D00049E00E94DF078FEF93EDA0E38150904046
:1007E000A040E1F700C00000809149018F5F809335
:1007F00049010E94F901812F1F910F91FF90EF9005
:1008000008959E2D901B092F0E9494058093460108
:100810002FEF30E742E0215030404040E1F700C088
:1008200000000E944303A2CF80E060E00E946C07BA
:100830008DE790E00E94D506089581E060E00E9477
:100840006C078DE790E00E94D50608950F931F93E3
:100850000E9456078FE99FE00197F1F700C0000062
:1008600080E064E00E946C078DE890E00E94D5066D
:100870008FEF99E6A8E181509040A040E1F700C0D9
:1008800000000E945607AFE9BFE01197F1F700C0E2
:10089000000080E064E00E946C0786E990E00E941E
:1008A000D5068FEF99E6A8E181509040A040E1F78E
:1008B00000C000000E945607AFE9BFE01197F1F7B2
:1008C00000C0000080E064E00E946C0780EA90E0D5
:1008D0000E94D5068FEF99E6A8E181509040A04094
:1008E000E1F700C000000E945607AFE9BFE0119792
:1008F000F1F700C000008FEF99E6A8E18150904029
:10090000A040E1F700C0000080E060E048E00E9405
:10091000DF0781E060E048E00E94DF078FEF99E6A3
:10092000A8E181509040A040E1F700C0000010E035
:1009300000E00E9494058F3FE1F3813349F40F5F9B
:100940000E94140480E0602F48E00E94DF070AC084
:10095000833341F41F5F0E941D0481E0612F48E052
:100960000E94DF070F3019F01F3019F72AC00E94CC
:100970005607AFE9BFE01197F1F700C0000080E033
:1009800063E00E946C0788EA90E00E94D50681E04F
:1009900065E00E946C0785EB90E00E94D5068FEF22
:1009A00093E2A4EF81509040A040E1F700C0000026
:1009B0000E945607AFE9BFE01197F1F700C00000B1
:1009C0002BC01F3049F50E9456078FE99FE0019721
:1009D000F1F700C0000080E063E00E946C078DEB3F
:1009E00090E00E94D50681E065E00E946C0785EBEF
:1009F00090E00E94D5068FEF93E2A4EF81509040E3
:100A0000A040E1F700C000000E945607AFE9BFE038
:100A10001197F1F700C000001F910F9108951F93E7
:100A2000CF93DF931092490110924A010E948006F1
:100A30000E942B060E9456078FE99FE00197F1F76D
:100A400000C0000080E060E00E946C078AEC90E04B
:100A50000E94D50681E062E00E946C0781ED90E083
:100A60000E94D50680E067E00E946C0783ED90E06D
:100A70000E94D50681E068E00E946C0788ED90E056
:100A80000E94D50680E06CE00E946C078AED90E041
:100A90000E94D50681E06DE00E946C0780EE90E038
:100AA0000E94D5068FEF99E6A8E181509040A040C2
:100AB000E1F700C000000E949405182F8F3FD9F382
:100AC0008FEF90E7A2E081509040A040E1F700C096
:100AD000000081E00E945806C2EED0E0113369F4B4
:100AE0000E94CC010E94EA0180E061E00E9458036C
:100AF00081E06EE00E94A903F1CF123319F40E9445
:100B00002604ECCF133351F781E00E945806CE0142
:100B10000E94D5068FEF9DE3A9E481509040A0404C
:100B2000E1F700C00000DACF2F923F924F925F9220
:100B30006F927F928F929F92AF92BF92CF92DF92ED
:100B4000EF92FF920F931F93DF93CF93CDB7DEB752
:100B500068970FB6F894DEBF0FBECDBFDE011196C9
:100B6000E4EFF0E080E101900D928150E1F784E044
:100B7000898B85E08A8B86E08B8B87E08C8B1D8A46
:100B800081E08E8B82E08F8B83E0888F0F2EF5E1E2
:100B90006F2E7724F02D6C0E7D1EAA24BB240F2E01
:100BA000F1E12F2E3324F02D2C0E3D1E2501F301F3
:100BB000C1903F0180E06C2D40E00E94CE007101A9
:100BC00000E010E04801F701D1907F0180E06D2D39
:100BD0000E9453018823A1F4882331F480E06D2D15
:100BE0000E9453018823D1F3F401EE0FFF1FEE0F93
:100BF000FF1F4E0E5F1EFE01E40DF51D818112C028
:100C00000F5F1F4F04301105E9F680E06C2D41E0C5
:100C10000E94CE000894A11CB11CF4E0AF16B104F0
:100C200029F68FEF68960FB6F894DEBF0FBECDBFE2
:100C3000CF91DF911F910F91FF90EF90DF90CF90B8
:100C4000BF90AF909F908F907F906F905F904F90EC
:100C50003F902F90089580E064E040E00E944900BA
:100C600080E065E040E00E94490080E066E040E00E
:100C70000E94490080E067E040E00E94490080E077
:100C800060E041E00E94490080E061E041E00E94B4
:100C9000490080E062E041E00E94490080E063E0BA
:100CA00041E00E94490080E06FEF0E9497010895A3
:100CB0001F93182F82E060E040E00E94CE0082E0A7
:100CC00061E040E00E94CE0083E0612F0E94970126
:100CD00082E062E041E00E94CE008FEC97E0019755
:100CE000F1F700C0000082E062E040E00E94CE0028
:100CF0008FEC97E00197F1F700C000001F91089575
:100D000083E06FEF0E94860182E06FEF0E94860110
:100D10008FE798E3A1E081509040A040E1F700C048
:100D2000000088E30E945806AFECB7E01197F1F796
:100D300000C000008CE00E9458068FEC97E00197FD
:100D4000F1F700C0000081E00E945806AFE9BFE063
:100D50001197F1F700C0000008951F93182F82E04B
:100D600060E041E00E94CE0082E061E040E00E944D
:100D7000CE0083E0612F0E94970182E062E041E0B3
:100D80000E94CE008FEC97E00197F1F700C00000C1
:100D900082E062E040E00E94CE008FEC97E0019795
:100DA000F1F700C000001F9108951F93CF93DF93C8
:100DB000EC018881882351F010E00E94AD061F5F8E
:100DC000FE01E10FF11D80818823B9F7DF91CF91FA
:100DD0001F9108956F927F928F929F92AF92BF92D0
:100DE000CF92DF92EF92FF920F931F937B018C01C2
:100DF000611571058105910521F480E30E94AD061E
:100E000048C060E070E0CB010F2EFAE06F2EF0E0FA
:100E10007F2EF0E08F2EF0E09F2EF02DA4019301A5
:100E20000E94E2075B016C01C801B7010E94010842
:100E30006A0D7B1D8C1D9D1DE22EF32E042F152F98
:100E4000E114F1040105110549F7611571058105EA
:100E50009105F9F00F2EFAE08F2EF0E09F2EF0E0D2
:100E6000AF2EF0E0BF2EF02DA50194010E940108E5
:100E7000022F132F642EE52E862F805D0E94AD0673
:100E8000602F712F862D9E2D6115710581059105AD
:100E900059F71F910F91FF90EF90DF90CF90BF9087
:100EA000AF909F908F907F906F900895CF93DF9336
:100EB00080E80E945806C4E0D1E0CE010E94D50629
:100EC00080EC0E945806CE010E94D50680E80E9460
:100ED0005806DF91CF910895882329F4862F8058F2
:100EE0000E9458060895813021F4862F80540E9474
:100EF00058060895DF92EF92FF920F931F93CF93BE
:100F0000DF93E82EC0E0D0E010E0FF24DD24D3948E
:100F1000CE01810F911D81319105B4F40E945607D5
:100F20006C2F610F8F2D0E946C078E2D90E00E9418
:100F3000D5068FEF94E3ACE081509040A040E1F7FC
:100F400000C00000FD241D5F2196C630D10501F7C9
:100F5000DF91CF911F910F91FF90EF90DF90089557
:100F6000DF92EF92FF920F931F93CF93DF93F82EB0
:100F7000E62ED42E80E40E945806C5E1D1E005E5B6
:100F800011E089910E94AD06C017D107D1F780E822
:100F90000E9458068F2D6E2D0E946C078D2D0E9489
:100FA000AD068FE097E20197F1F700C00000DF91F6
:100FB000CF911F910F91FF90EF90DF9008950E94C5
:100FC000B0070895629FD001739FF001829FE00DEA
:100FD000F11D649FE00DF11D929FF00D839FF00DB8
:100FE000749FF00D659FF00D9927729FB00DE11D64
:100FF000F91F639FB00DE11DF91FBD01CF01112441
:101000000895A1E21A2EAA1BBB1BFD010DC0AA1F49
:10101000BB1FEE1FFF1FA217B307E407F50720F061
:10102000A21BB30BE40BF50B661F771F881F991FDC
:101030001A9469F760957095809590959B01AC0125
:0A104000BD01CF010895F894FFCF21
:10104A002020202020202020202020202020005086
:10105A004C313A2000504C323A2000200020202007
:10106A0020202020202020202020202000526561DE
:10107A00647920332000537465616479203220003A
:10108A002020476F203120004E756D626572203135
:10109A00206973200057696E6E657220004E756D67
:1010AA0062657220322069732000706164646C6525
:1010BA000031005261636500320053616E6B650056
:1010CA003300556E64657220646576656C6F706D69
:1010DA00656E74003132332B3435362D3738392A60
:1010EA0043303D2F20202020202020202020202097
:1010FA002020202000040A0A150E040E1100000008
:10110A00000C0C0000000000001F00000004040492
:10111A0004040404041C0404040404041C07040452
:06112A00040404040700A8
:00000001FF
